:100000000C9434000C943E000C943E000C943E0082
:100010000C943E000C943E000C943E000C943E0068
:100020000C943E000C943E000C943E000C943E0058
:100030000C943E000C943E000C943E000C943E0048
:100040000C943E000C943E000C943E000C943E0038
:100050000C943E000C943E000C943E000C943E0028
:100060000C943E000C943E0011241FBECFEFD8E04C
:10007000DEBFCDBF0E9440000C9465000C940000D0
:1000800017B818B88FEF84B98AB915B81BB840E013
:1000900050E061E086B190E015B81BB80097D1F34D
:1000A00065B921E030E00DC0440F551F4BB9203831
:1000B000310519F46BB941E050E0220F331F25B927
:0E00C00001978130910531F3EFCFF894FFCF17
:00000001FF
