:100000000C9434000C943E000C943E000C943E0082
:100010000C943E000C943E000C943E000C943E0068
:100020000C943E000C943E000C943E000C943E0058
:100030000C943E000C943E000C943E000C943E0048
:100040000C943E000C943E000C943E000C943E0038
:100050000C943E000C943E000C943E000C943E0028
:100060000C943E000C943E0011241FBECFEFD8E04C
:10007000DEBFCDBF0E9440000C949C000C94000099
:1000800017B818B88FEF84B98AB915B81BB864E0EF
:1000900050E148E030E220E4E1E092E070E886B12F
:1000A000873089F1883070F4833029F1843028F466
:1000B0008130E1F08230E8F417C0853001F18630FC
:1000C00000F51BC08B3049F18C3028F48930F9F0F1
:1000D0008A3000F51AC08D3031F18D3008F18E3044
:1000E00029F18F30E1F625C015B801C085B91BB8DC
:1000F000D6CF95B9FCCF65B9FACF45B9F8CF55B988
:10010000F6CF35B9F4CF25B9F2CF75B9F0CF15B820
:10011000EBB9C5CF15B89BB9C2CF15B86BB9BFCF76
:1001200015B84BB9BCCF15B85BB9B9CF15B83BB949
:0C013000B6CF15B82BB9B3CFF894FFCFB1
:00000001FF
