:1000000012C017C016C015C014C013C012C011C052
:1000100010C00FC00EC00DC00CC00BC00AC009C07C
:1000200008C007C006C011241FBECFEDCDBF02D04F
:100030003EC0E6CF11BA8FEF82BB87BB18BAFEEB8A
:10004000E0EE7EEF66EB50E64AED32EF2CEF96E6FF
:1000500080B3803111F1813160F48430C1F085309A
:1000600018F4882391F0F4CF883099F08C3081F720
:1000700012C08831B1F0893118F4843149F70FC0CA
:100080008C3189F0803221F710C028BBE1CF58BBFA
:10009000DFCF48BBDDCF38BBDBCF98BBD9CF68BB48
:1000A000D7CFF8BBD5CFE8BBD3CF78BBD1CFF894AF
:0200B000FFCF80
:00000001FF
